:020000040800F2
:100000008024002019170008DD030008DF03000822
:10001000E3030008E7030008EB030008000000000A
:10002000000000000000000000000000EF030008D6
:10003000F103000800000000F3030008F5030008C6
:100040003317000833170008331700083317000868
:100050003317000833170008331700083317000858
:100060003317000833170008331700083317000848
:100070003317000833170008331700083317000838
:100080003317000833170008331700083317000828
:100090003317000833170008331700083317000818
:1000A0003317000833170008331700083317000808
:1000B0003317000833170008953800083317000875
:1000C00033170008331700083317000833170008E8
:1000D000331700088D160008331700089106000832
:1000E00033170008331700083317000833170008C8
:1000F00033170008331700083317000833170008B8
:1001000033170008331700083317000833170008A7
:1001100033170008331700083317000809060008D2
:100120003317000833170008331700083317000887
:100130003317000833170008331700083317000877
:100140003317000833170008331700083317000867
:100150003317000833170008331700083317000857
:100160003317000833170008331700083317000847
:100170003317000833170008331700083317000837
:10018000331700083317000800F002F800F0B2F847
:100190000AA090E8000C82448344AAF10107DA45E2
:1001A00001D100F0A7F8AFF2090EBAE80F0013F082
:1001B000010F18BFFB1A43F00103184790710000AC
:1001C000B07100000A444FF0000C10F8013B13F02E
:1001D000070408BF10F8014B1D1108BF10F8015BA0
:1001E000641E05D010F8016B641E01F8016BF9D193
:1001F00013F0080F1EBF10F8014BAD1C0C1B09D1EA
:100200006D1E58BF01F801CBFAD505E014F8016B5B
:1002100001F8016B6D1EF9D59142D6D370470000ED
:100220000023002400250026103A28BF78C1FBD8FF
:10023000520728BF30C148BF0B6070476E2904F0D9
:10024000E582702904F08581662905F0E683652939
:1002500005F0E383672905F0E0836129AFF30080AF
:1002600003681B0A28BF41F08001692904F0F68069
:10027000642904F0F380752904F0F0806F2904F0FC
:10028000DC83782904F05181E92904F07783E4299B
:1002900004F07483F52904F07183EF2904F0D98305
:1002A000F82904F050810368DB0928BF41F0800180
:1002B000632904F0E682732904F0EB82E32904F059
:1002C0003186F32904F03686002070471FB505F00B
:1002D0009FFB04F085FE04000020002105F082FB56
:1002E000401C60600020002105F066FBE0601FBD3F
:1002F00010B510BD04F046FE1146FFF7E7FF00F011
:1003000046F804F023FF03B4FFF7F2FF03BC01F04B
:1003100059F9000010B5A82001F0D2F84FF4A06000
:1003200001F01AFA4FF4E13001F05AF91C48416823
:100330005420884701F00DF80C231AA2002108462A
:1003400000F08FFE00F0E6FC4FF47A7001F01AF92D
:1003500000F091FB0020184908800C2317A21946D1
:1003600000F07FFE00F0D6FC4FF47A7001F00AF93D
:100370000C2317A22421002000F073FE00F0CAFC19
:100380004FF4FA6001F0FEF800F0E7FC10BDFFF753
:10039000C1FF03E04FF4FA7001F0F4F8FAE700004F
:1003A000C41400204F4C454420696E697420737555
:1003B00063636573732100002000002048432D30E3
:1003C0003820696E697420737563636573732100E7
:1003D000537461727465642100000000704700BFAF
:1003E000FEE700BFFEE700BFFEE700BFFEE7704785
:1003F00070477047704700000CB5002001900090D6
:100400007648006840F480307449086000BF734843
:10041000006800F4003000900198401C01900098A2
:1004200018B90198B0F5A04FF1D16C48006800F4FC
:10043000003010B10120009001E0002000900098F1
:10044000012846D165484030006840F0805063493B
:10045000403108606248006840F4404060490860EC
:100460005E48083000685D49083108600846006849
:1004700040F4004008600846006840F4A05008605E
:100480005848091F0860081F006840F08070091F65
:10049000086000BF5148006800F000700028F9D0E3
:1004A00040F20570504908604C480830006820F060
:1004B00003004A49083108600846006840F002001D
:1004C000086000BF45480830006800F00C000828AC
:1004D000F8D10CBD10B54548006840F470004349A0
:1004E00008603E48006840F001003C490860002078
:1004F0003A4908310860394800683D4908403749A1
:1005000008603C48091D0860081F006820F480202E
:10051000091F0860002031490C310860FFF76CFFAB
:100520004FF0006031498039086010BD70B500207F
:100530000022022300240221284D08352D6805F0F1
:100540000C0020B1042806D0082834D107E02A4D39
:100550002A4E356033E02A4D284E35602FE01F4D7E
:100560002D1D2D68C5F380541C4D2D1D2D6805F0E3
:100570003F0154B1224DB5FBF1F5184E361D3668DA
:10058000C6F3881605FB06F209E01B4DB5FBF1F535
:10059000124E361D3668C6F3881605FB06F20F4D5F
:1005A0002D1D2D68C5F301456D1C6B00B2FBF3F5E5
:1005B000124E356003E0104D104E356000BF00BF95
:1005C000064D08352D68C5F303150E4E705D0B4DB5
:1005D0002D68C540094E356070BD000000380240EE
:1005E0000070004008544007003C024088ED00E0E5
:1005F000FFFFF6FE103000240024F400000000206D
:1006000000127A000400002010B501211E4802F0FB
:100610001AFD68B11D48008840F400401B4908805D
:100620000121194802F020FD0021174802F0DCF8F2
:1006300010BD7FB505460C460121202001F069FC64
:100640000195ADF800400020ADF80800ADF80200BB
:1006500069460D4802F03FF8012211460A4802F0AF
:10066000DBFC0121084802F0BFF837208DF80C00B0
:1006700000208DF80D0001208DF80E008DF80F0080
:1006800003A801F06EF87FBD001400402000002098
:1006900010B5002440F22551A74801F025FF00289D
:1006A0003CD0A54801F05EFEC4B20021A34802F090
:1006B0005BF8A348008818B90121A04802F094F81B
:1006C000612C03D09F48006801287DD101209D49FD
:1006D0000860612C23D100209B49086001209B49C0
:1006E00008609B48407830380A2190FBF1F1984827
:1006F000007830380144964880783038642290FB86
:10070000F2F0084400EE100AB8EEC00A914880EDFD
:10071000000A00208E4908704870887084E08B4879
:1007200000680128FAD18A488749096844548648F4
:100730000068401C8449086008460068042873D19A
:1007400000F00BFB0C2384A20021084600F089FC7A
:100750000C2386A21946002000F083FC0C2385A2FE
:100760001821002000F07DFC0C2384A2242100200D
:1007700000F077FC7648C078303882490870084627
:10078000007800EB40008006010E0C237EA248207A
:1007900000F067FC6E4802787A48007800EB400071
:1007A0008006010E0C23182000F0D8FB7548007855
:1007B00000EB40008006010E0C232E221E2000F0CC
:1007C000CDFB6348427800E02BE06E48007800EBF8
:1007D00040008006010E0C23242000F0BFFB5C4883
:1007E00082786848007800EB40008006010E0C23F8
:1007F0002A2000F0B3FB6348007800EB400080063D
:10080000010E0C235622302000F0A8FB00F082FAE3
:10081000642000F0B7FE00204B4908605949087079
:1008200002E000204749086010BD10B588B00446BA
:10083000414801F079FC0121022001F021FB012156
:10084000880401F066FB4FF44060059002208DF8AB
:1008500018008DF8190000208DF81A0001208DF87D
:100860001B0005A94A4801F06DF807220B214848F2
:1008700001F0F3F807220A21454801F0EEF801944F
:100880000020ADF80800ADF80A00ADF80C00ADF896
:1008900010000C20ADF80E0001A9274801F0ABFCB8
:1008A000012240F22551244801F0E3FD01212248B4
:1008B00001F029FD27208DF81C0002208DF81D0075
:1008C00003208DF81E0001208DF81F0007A800F0FE
:1008D00048FF42F2CF016320FFF7ABFE002117482B
:1008E00001F082FF00201649088008B010BD0FB447
:1008F00038B505A800902748009A049903F040FDF8
:1009000000200090234803F0F3FE85B200240DE0A0
:1009100000BF4021084801F0D1FD0028F9D01D4852
:10092000015D054801F01AFD601C84B2AC42EFDBAA
:1009300038BC5DF814FB0000004800400014004083
:10094000200000202C00002028000020240000208F
:100950001C000020180000204D61747365723A205D
:10096000436F6E6E65637420000000004144313AAD
:10097000000000004144323A000000004144333A94
:100980000000000030000020736166652100000057
:1009900000040240B815002070B50F2634E0012095
:1009A000854908600A2000F0EDFD84A0FFF79FFF55
:1009B00000250AE00A2000F0E5FD8348008800F4E5
:1009C000004000B103E0681CC5B2142DF2DB00BF8B
:1009D0000020794908607C48008800F4004098B104
:1009E00079480478002078490880062C05D177489A
:1009F00000784D2801D1012406E0052C04D173486C
:100A00000078532800D10024301EA6F10101CEB297
:100A1000C5D106B9FF24204670BD10B5FFF7BCFF55
:100A2000012808D10C236AA21946002000F019FB06
:100A300000F070F907E00C2369A21946002000F0CD
:100A400010FB00F067F910BD10B55B4884380068F2
:100A500040B10C2365A21821002000F002FB00F039
:100A600059F907E00C2365A21821002000F0F9FADB
:100A700000F050F910BD7CB50A25002401210420A6
:100A800001F0FEF90120009000208DF80400032001
:100A90008DF8050001208DF8070069465B4800F0DD
:100AA00051FF0220009001208DF8040000208DF8F5
:100AB000060003208DF8050001208DF80700694627
:100AC000524800F03FFF0221504800F0B7FF4FF4BA
:100AD0001650FFF7AAFE20467CBD2DE9F0410546E1
:100AE0000F272FE00120344908600A2000F04AFD5A
:100AF000294647A0FFF7FBFE00204649C1F88402C3
:100B000000260AE03048008800F4004000B106E00A
:100B1000052000F037FD701CC6B2142EF2DB00BFBA
:100B20002948008800F4004060B12748047800207C
:100B300025490880042C05D1244800784F2801D18C
:100B4000002404E0381EA7F10101CFB2CAD100BFD2
:100B500007B9FF242046BDE8F08170B504460120A6
:100B6000154908600A2000F00DFD21462AA0FFF774
:100B7000BEFE00260AE01448008800F4004000B1E0
:100B800006E00A2000F0FEFC701CC6B2322EF2DB3A
:100B900000BF0020084908600B48008800F40040AE
:100BA00048B1094805780020074908800749485599
:100BB0001BA003F0F7FB70BD8402414241542B524D
:100BC0004F4C453D3F00000020000020481700200A
:100BD000524F4C453A4D617374657220000000001D
:100BE000524F4C453A536C61766520005354413A5C
:100BF000436F6E6E65637465642000005354413A20
:100C0000446973636F6E6E65637420000008024070
:100C1000257300000000414225730D0A000000000A
:100C20000D0A25730000000070B504460E4626B17B
:100C30000221FE4800F002FF03E00221FB4800F021
:100C4000FFFE2021F94800F0FBFE002517E01021EF
:100C5000F64800F0F5FE04F0800020B10821F348CA
:100C600000F0ECFE03E00821F04800F0E9FE10215E
:100C7000EE4800F0E3FE6006040E681CC5B2082DC5
:100C8000E5DB2021E94800F0D9FE0221E74800F029
:100C9000D5FE70BD10B504461CB90021A620FFF793
:100CA000C3FF012C03D10021A720FFF7BDFF10BD1A
:100CB00010B504463CB90021C820FFF7B5FF00215C
:100CC000A120FFF7B1FF012C07D10021C020FFF7C1
:100CD000ABFF0021A020FFF7A7FF10BD10B500213A
:100CE0008D20FFF7A1FF00211420FFF79DFF0021B9
:100CF000AF20FFF799FF10BD10B500218D20FFF741
:100D000093FF00211020FFF78FFF0021AF20FFF796
:100D10008BFF10BD70B500241CE004F1B001C8B217
:100D20000021FFF781FF00210846FFF77DFF00212A
:100D30001020FFF779FF002508E0BD4901EBC50150
:100D4000085D0121FFF770FF681CC5B2802DF4DB40
:100D5000601CC4B2082CE0DB70BD70B500240CE050
:100D6000002506E00020B24901EBC5010855681CCA
:100D7000C5B2802DF6DB601CC4B2082CF0DBFFF797
:100D8000C9FF70BD70B50A46CE1701EB5676C6F3A3
:100D9000C703CE1701EB5676F610A1EBC606F4B2E8
:100DA0000122A240D5B2A24A02EBC002D25C2A4381
:100DB0009F4E06EBC006F25470BD70B50B46CE17C1
:100DC00001EB5676C6F3C702CE1701EB5676F61046
:100DD000A1EBC606F4B20123A340DDB2944B03EBB2
:100DE000C0039B5CDB43924E06EBC006B354904BB2
:100DF00003EBC0039B5C2B438D4E06EBC006B35444
:100E00008B4B03EBC0039B5CDB43894E06EBC006B8
:100E1000B35470BD2DE9F84F05460E461746984667
:100E2000002D0ADB802F08DC002E06DBB8F1400F16
:100E300003DCBD4201DC464501DDBDE8F88FBD4263
:100E40000DD1002406E03019C1B22846FFF79AFF01
:100E5000601CC4B2A8EB0600A042F4DC30E04645BA
:100E60000CD1002406E02919C8B23146FFF78AFFE9
:100E7000601CC4B2781BA042F5DC21E0A8EB0600A0
:100E800000F0FF0A781B00F0FF0B0AEB8A0040001D
:100E900090FBFBF000F0FF0900240EE004FB09F0DA
:100EA0000A2190FBF1F03044C0B229190090C8B279
:100EB0000099FFF767FF601CC4B2781BA042EDDC0D
:100EC00000BFBAE72DE9F04306460F4690460025DD
:100ED00044463BE03A1BD1B27219D0B2FFF752FF41
:100EE0003A1BD1B2721BD0B2FFF74CFF3A19D1B204
:100EF000721BD0B2FFF746FF3A19D1B27219D0B2C5
:100F0000FFF740FF7A19D1B23219D0B2FFF73AFF9A
:100F10007A1BD1B23219D0B2FFF734FF7A1BD1B2AB
:100F2000321BD0B2FFF72EFF7A19D1B2321BD0B2EA
:100F3000FFF728FF6D1C05FB05F004FB040008FB10
:100F40001809B9F1000F01DD641E6D1E60006043D9
:100F500008FB08F18842BDDABDE8F0832DE9FF4FB8
:100F600081B080460E461C4600962046E31704EBEF
:100F70005373DB1021464FEAE47C04EB5C7C4FEAC0
:100F8000EC0CA4EBCC0CBCF1000F02D04FF0010C28
:100F900001E04FF0000C6344224604EBD27C4FEAA0
:100FA0006C0C03FB0CF303F0FF0B03982038C7B263
:100FB000002552E00C2C07D107EB47001D4901EB3F
:100FC000800010F805A014E0102C05D11A4800EBA1
:100FD000071010F805A00CE0182C07D107EBC7008C
:100FE000164901EB800010F805A002E005B0BDE84D
:100FF000F08F4FF000092AE00AF0800020B131465E
:101000004046FFF7BFFE03E031464046FFF7D5FEFE
:101010004FEA4A604FEA106A701CC6B20098301A54
:10102000A04210D1009E08F1010009E0000C02402E
:10103000D81800201E5A0008925E0008826400083A
:1010400000F0FF0806E009F1010000F0FF09B9F126
:10105000080FD1DB00BF681CC5B25D45AADB00BF2D
:10106000C4E7F0B506460F4614461D4613E0227845
:101070002B4639463046FFF771FF284605EBD07105
:1010800006EB6101CEB2C5F18000B04202DA002663
:10109000B81CC7B2641C2078202802DB20787E2888
:1010A000E5DDF0BD10B50246012000E050430B1E07
:1010B000A1F10104E1B2F9D110BD2DE9F04F0646CE
:1010C0008A4691461F46099C00252CE0781B401E4D
:1010D000C1B20A20FFF7E6FFB9FBF0F00A21B0FB2E
:1010E000F1F201FB1208B8F1000F0CD1A34604EB9A
:1010F000DB71491001FB0561C8B22346302251461D
:10110000FFF72CFF0DE0A34604EBDB71491001FB58
:101110000561C8B208F13001CAB223465146FFF753
:101120001DFF681CC5B2BD42D0DBBDE8F08F2DE9C4
:10113000FF4F0746884691461C464FF0000B02972A
:10114000CDF804802046E11704EB5171C1F3C701CB
:10115000009160E009FB04F0C11700EB51710BEB4B
:10116000E101CEB20BF1010000F0FF0B002550E0D1
:10117000102C05D1CB4800EB0610405D03901BE01E
:10118000182C07D106EBC600C74901EBC000405D33
:10119000039011E0202C05D1C44800EBC610405D3F
:1011A000039009E0402C05D1C14800EB4620405D8A
:1011B000039001E0BDE8FF8F4FF0000A17E00398AD
:1011C00000F0010020B141463846FFF7DBFD03E0A7
:1011D00041463846FFF7F1FD03984010039008F1AF
:1011E000010000F0FF080AF1010000F0FF0ABAF167
:1011F000080FE4DB781CC7B20298381AA04204D169
:10120000029F01980830C0B20190DDF80480681C8C
:10121000C5B2A542ACDB0098411EC9B200910028BE
:1012200098D100BFC6E7804689460026002749E0DE
:101230003FB91023324618218020FFF778FF701C39
:10124000C6B2464522D14FF0000A1AE0002410E051
:1012500000250AE0974800EBC400415D601E954AF6
:1012600002EBC0004155681CC5B2082DF2DB601CC2
:10127000C4B2902CECDBFFF74DFD0AF1010000F049
:10128000FF0A4FEA09105045E0DC0026781CC7B27F
:10129000102F00D10027002410E000250AE0854827
:1012A00000EBC400415D601E824A02EBC000415564
:1012B000681CC5B2082DF2DB601CC4B2902CECDBBC
:1012C000FFF728FDB4E770B504460D4605F1B001FF
:1012D000C8B20021FFF7A8FC102141EA1410002138
:1012E000FFF7A2FC04F00F000021FFF79DFC70BD8A
:1012F0002DE9F05F05460E4617469846DDF828B002
:101300004FF00009CA460024E11704EB5171C910DF
:10131000A4EBC10101B901E0601CC4B2344614E081
:1013200021462846FFF7CFFFAA460AE01BF809002E
:101330000121FFF779FC09F101090AF1010000F030
:10134000FF0ABA45F2DB601CC4B24445E8DBBDE8E5
:10135000F09F1CB50121182000F092FD3E20009066
:1013600001208DF8040000208DF8060003208DF880
:10137000050001208DF8070069464F4800F0E2FAA9
:101380004FF4A060009001208DF8040000208DF83B
:10139000060003208DF8050001208DF8070069463E
:1013A000464800F0CFFA0421434800F049FBC8202A
:1013B00000F0E8F80421404800F040FB0021AE2096
:1013C000FFF732FC00210846FFF72EFC0021102019
:1013D000FFF72AFC00214020FFF726FC0021812096
:1013E000FFF722FC0021CF20FFF71EFC0021A120E7
:1013F000FFF71AFC0021C820FFF716FC0021A620E9
:10140000FFF712FC0021A820FFF70EFC00213F206F
:10141000FFF70AFC0021D320FFF706FC0021084655
:10142000FFF702FC0021D520FFF7FEFB0021802002
:10143000FFF7FAFB0021D920FFF7F6FB0021F1208E
:10144000FFF7F2FB0021DA20FFF7EEFB002112206C
:10145000FFF7EAFB0021DB20FFF7E6FB002140203D
:10146000FFF7E2FB00212020FFF7DEFB0021022036
:10147000FFF7DAFB00218D20FFF7D6FB00211420B7
:10148000FFF7D2FB0021A420FFF7CEFB0021A6200E
:10149000FFF7CAFB0021AF20FFF7C6FBFFF75DFC9B
:1014A0001CBD0000310000209101002069020020D5
:1014B00069040020D8180020000C024000100240EF
:1014C00010B504466FF0040000F098F9E11704EB42
:1014D0005171C1F3C701394A11701046007800EB11
:1014E0004001C1EBC0104FF6FF7101EAC000344962
:1014F000088010BD0146314A12784A434FF0E0237C
:101500005A6100229A611A46126942F001021A6178
:1015100000BF4FF0E022106900F001021AB100F4A0
:101520008032002AF5D04FF0E022126922F0010249
:101530004FF0E0231A6100229A6170470146204A69
:1015400012884A434FF0E0235A6100229A611A46FA
:10155000126942F001021A6100BF4FF0E0221069E7
:1015600000F001021AB100F48032002AF5D04FF0E9
:10157000E022126922F001024FF0E0231A610022FA
:101580009A61704770B504464FF4077094FBF0F011
:10159000C6B24FF4077094FBF0F100FB114085B226
:1015A00005E04FF40770FFF7C9FF701EC6B2002EAA
:1015B000F7D115B12846FFF7C1FF70BD6A140020AE
:1015C0006C140020014600BF704700BF4E4A1288CD
:1015D00002F04002002AF9D0C2B24B4B9A80704709
:1015E00010B588B004460121084600F049FC0121ED
:1015F000102000F09FFC07220921444800F02DFA3A
:1016000007220A21414800F028FA4FF4C0600690F2
:1016100002208DF81C008DF81D0000208DF81E00A2
:1016200001208DF81F0006A9384800F08BF90294BC
:101630000020ADF80C00ADF80E00ADF81000ADF8CC
:1016400014000C20ADF8120002A92F4800F0D3FDC1
:1016500001212D4800F057FE40212B4800F03BFFB0
:10166000012240F22551284800F003FF25208DF883
:10167000040003208DF805008DF8060001208DF888
:10168000070001A800F06DF808B010BD10B540F2D9
:1016900025511D4800F028FF10B31B4800F062FEE2
:1016A000C4B21B48008800F40040C8B9184800883C
:1016B00000F4804060B10A2C03D000201449088057
:1016C00020E01348008840F400401149088019E0E8
:1016D0000D2C06D10E48008840F480400C4908804B
:1016E00010E00B480088C0F30D000A490C5408486C
:1016F0000088401C0649088008460088C72801DD8C
:101700000020088010BD00000010014000000240D1
:1017100074140020581D00200948804709480047DC
:10172000FEE7FEE7FEE7FEE7FEE7FEE7FEE7FEE791
:10173000FEE7FEE704480549054A064B70470000EE
:10174000D504000889010008801E002080240020A4
:10175000802000208020002032490143324A11605D
:10176000704770B5002100230F22C4781CB32E4CA3
:10177000246804F4E064C4F5E064C4F30721C1F113
:101780000404E3B20A4144789C40E1B284781440F6
:1017900021430C07210E254C05786155047804F08F
:1017A0001F050124AC4005786D11AD0005F1E02561
:1017B000C5F8004109E0047804F01F050124AC409D
:1017C0001B4D0678761145F8264070BD194A0A402F
:1017D0000243154B1B1F1A60704739B1124A121D84
:1017E00012680243104B1B1D1A6006E00E4A121DC0
:1017F000126882430C4B1B1D1A607047042808D1E5
:101800004FF0E021096941F004014FF0E02211613D
:1018100007E04FF0E021096921F004014FF0E022D8
:10182000116170470000FA050CED00E000E400E0F3
:1018300080E100E080FFFF1F10B504469848844215
:1018400008D10121084600F086FB0021012000F0AC
:1018500082FB76E09348844208D10121022000F007
:101860007AFB0021022000F076FB6AE08E48844279
:1018700008D10121042000F06EFB0021042000F0BB
:101880006AFB5EE08948844208D10121082000F00B
:1018900062FB0021082000F05EFB52E08448844295
:1018A00008D10121102000F056FB0021102000F08B
:1018B00052FB46E07F48844208D10121202000F0FD
:1018C0004AFB0021202000F046FB3AE07A4884429F
:1018D00008D10121402000F03EFB0021402000F013
:1018E0003AFB2EE07548844208D10121802000F0A7
:1018F00032FB0021802000F02EFB22E07048844261
:1019000008D10121801500F026FB0021A01500F070
:1019100022FB16E06B48844208D10121401500F0FB
:101920001AFB0021601500F016FB0AE066488442AD
:1019300007D10121001500F00EFB0021201500F059
:101940000AFB10BDF0B50A4600210023002400BFA9
:101950003DE0012505FA01F3156805EA03049C4200
:1019600034D105684F000326BE40B54305601579A4
:101970004E00B5400668354305601579012D02D04B
:101980001579022D16D185684F000326BE40B54358
:10199000856055794E00B540866835438560456859
:1019A00001268E40B5434560456896798E40B6B2B3
:1019B00035434560C5684F000326BE40B543C5604A
:1019C000D5794E00B540C6683543C560491C10291D
:1019D000BFD3F0BD4FF6FF7101600021017141716D
:1019E0008171C171704708B54FF480320092009A3E
:1019F0000A430092009AC261C161009AC261C26941
:101A00000092C269009208BD0246002013690B4093
:101A10000BB1012000E0002070470146086980B248
:101A200070470246002053690B400BB1012000E0D3
:101A3000002070470146486980B2704701837047B3
:101A4000418370470AB1018300E0418370474161DF
:101A5000704742694A4042617047F0B50023002454
:101A60004D07ED0E02FA05F3CE1000F1200555F8F2
:101A700026504E07F70E0F26BE40B543CF1000F19B
:101A8000200646F82750CE1000F1200555F82650C4
:101A900045EA0304CE1000F1200545F82640F0BDCC
:101AA000000002400004024000080240000C024016
:101AB000001002400014024000180240001C0240C6
:101AC000002002400024024000280240F94800683B
:101AD00040F00100F74908600020F649083108602D
:101AE000F4480068F4490840F2490860F348091DC9
:101AF0000860F348EF4984310860F0481038091D48
:101B00000860EC48006820F48020EA490860002062
:101B1000E8490C310860E7498C31086070470021C2
:101B2000E44A921C117011460870704710B50146C6
:101B30000022002300204A11012A02D1DD4C236833
:101B400008E0022A03D1DB4C7034236802E0D94C50
:101B50007434236801F01F02012494401C400CB12E
:101B6000012000E0002010BD38B5002000900024C6
:101B7000002500BF3120FFF7D9FF05460098401C23
:101B800000900098B0F5A04F01D0002DF2D0312088
:101B9000FFF7CCFF08B1012400E00024204638BD47
:101BA00001460020C34A106820F0F80040EAC10056
:101BB00010607047C349086070470021BD4A703209
:101BC00011701170012802D004280AD104E001210B
:101BD000B84A7032117005E00521B64A70321170B2
:101BE00000E000BF00BF7047B7490860704770B59C
:101BF000049C41EA82150126C6EB530645EA0645D8
:101C0000054345EA0465AB4E361D356070BDAD49F0
:101C100008667047820142EA0172A64B84331A605B
:101C20007047A8498866704710B5830143EA01638D
:101C300043EA02739F4C8834236010BDA1490867B2
:101C40007047A049C864704702460020994B08338A
:101C5000186820F0EC6042EA01031843954B083302
:101C60001860704702460020924B0833186820F035
:101C7000784042EA010318438E4B083318607047DE
:101C8000014600208B4A0832106820F00300084308
:101C90001060704787480830006800F00C007047FB
:101CA00001460020834A0832106820F0F000084303
:101CB00010607047014600207E4A0832106820F408
:101CC000E05008431060704701460020794A08320E
:101CD000106820F4604040EAC10010607047F0B521
:101CE000002100220024022500260223714F08371C
:101CF0003F6807F00C0121B1042905D0082937D12C
:101D000005E0724F076036E0714F076033E0694FBE
:101D10003F1D3F68C7F38056664F3F1D3F6807F081
:101D20003F036EB16A4FB7FBF3F7DFF888C10CF1E0
:101D3000040CDCF800C0CCF3881C07FB0CF40CE0AE
:101D4000624FB7FBF3F7DFF86CC10CF1040CDCF861
:101D500000C0CCF3881C07FB0CF4564F3F1D3F68B6
:101D6000C7F301477F1C7D00B4FBF5F7076002E075
:101D7000564F076000BF00BF4E4F08373F6807F05F
:101D8000F0010909534F7A5C0768D7404760494F13
:101D900008373F6807F4E051890A4E4F7A5C47687C
:101DA000D7408760434F08373F6807F46041490BCD
:101DB000484F7A5C4768D740C760F0BD002100F407
:101DC0004072B2F5407F0AD13A4A0832116821F4D4
:101DD000F811414A02401143364A08321160354A2F
:101DE00070321268C0F30B031A43324B70331A601F
:101DF00070473549443908607047334940390860B5
:101E0000704736490860704701460020294A8C32E5
:101E1000106820F01F004A1E1043264A8C321060C2
:101E2000704701460020234A8C32106820F4F85095
:101E30004A1E40EA02201F4A8C3210607047014659
:101E400000201C4A8C32106820F4401008431060B7
:101E5000704701460020174A8C32106820F4400079
:101E600008431060704701460020124A8C32106807
:101E700020F44030084310607047194908607047EB
:101E800039B10C4A3032126802430A4B30331A60BF
:101E900006E0084A303212688243064B30331A603B
:101EA0007047F9B1034A343212680243014B3433AC
:101EB0001A601CE000380240FFFFF6EA10300024F0
:101EC0000030002000004742800E47420024F4000A
:101ED00000127A0076140020FFFCFF0F5C014742DD
:101EE000E01147428F4A126882438E4B1A60704756
:101EF00039B18C4A121D126802438A4B1B1D1A60AD
:101F000006E0884A121D12688243864B1B1D1A6028
:101F1000704739B1834A0C3212680243814B0C334B
:101F20001A6006E07F4A0C32126882437D4B0C3304
:101F30001A60704739B17B4A103212680243794BFC
:101F400010331A6006E0774A103212688243754BEC
:101F500010331A60704739B1724A243A126802434A
:101F6000704B243B1A6006E06E4A243A12688243A2
:101F70006C4B243B1A60704739B16A4A203A1268A8
:101F80000243684B203B1A6006E0664A203A12681A
:101F90008243644B203B1A60704739B1614A1C3A56
:101FA000126802435F4B1C3B1A6006E05D4A1C3A14
:101FB000126882435B4B1C3B1A60704739B1594A27
:101FC000143A12680243574B143B1A6006E0554A14
:101FD000143A12688243534B143B1A60704739B16C
:101FE000504A103A126802434E4B103B1A6006E00A
:101FF0004C4A103A126882434A4B103B1A607047B1
:1020000039B1484A1C3212680243464B1C331A60ED
:1020100006E0444A1C3212688243424B1C331A6069
:10202000704739B13F4A2032126802433D4B20339A
:102030001A6006E03B4A203212688243394B203353
:102040001A60704739B1374A243212680243354B5F
:1020500024331A6006E0334A243212688243314B3B
:1020600024331A60704739B12E4A2C321268024369
:102070002C4B2C331A6006E02A4A2C321268824319
:10208000284B2C331A60704739B1264A3032126817
:102090000243244B30331A6006E0224A3032126881
:1020A0008243204B30331A607047012808D11D4904
:1020B0003C31096841F008011A4A3C32116007E0DE
:1020C00018493C31096821F00801164A3C32116078
:1020D000704739B1134A273A12780243114B273B14
:1020E0001A7006E00F4A273A127882430D4B273BBD
:1020F0001A7070470B484030006840F08070094902
:1021000040310860704701460020064A283A1268AC
:102110000A400AB1012000E0002070470149263939
:10212000087070473438024010B50446FA488442BB
:1021300008D101211020FFF752FF00211020FFF7E6
:102140004EFF57E0F548844209D101214804FFF7CA
:1021500035FF00214FF40030FFF730FF4AE0F04830
:10216000844209D101218804FFF728FF00214FF4A0
:102170008020FFF723FF3DE0EA48844209D1012196
:10218000C804FFF71BFF00214FF40020FFF716FFE4
:1021900030E0E548844209D101210805FFF70EFF30
:1021A00000214FF48010FFF709FF23E0DF4884424D
:1021B00008D101212020FFF712FF00212020FFF786
:1021C0000EFF17E0DA48844209D101218807FFF7A2
:1021D000F5FE00214FF08040FFF7F0FE0AE0D54801
:1021E000844207D101214005FFF7E8FE0021600588
:1021F000FFF7E4FE10BD2DE9FF4705460E4600241B
:10220000A14600BFA046B08900B100BF2C8A24F4CB
:102210004054F08804432C82AC8941F20C60844322
:10222000B08831890843718908430443AC81AC8A82
:1022300024F44074B0890443AC826846FFF74FFD34
:10224000B548854202D0B948854202D1DDF80C90EC
:1022500001E0DDF80890A88900F4004040B109EBE6
:10226000C90000EB091031684900B0FBF1F707E045
:1022700009EBC90000EB091031688900B0FBF1F7E8
:102280006420B7FBF0F004012009642101FB107801
:10229000A88900F4004040B1322000EBC800B0FB38
:1022A000F1F000F00700044308E0322000EB0810D2
:1022B0006421B0FBF1F000F00F0004432C81BDE875
:1022C000FF874FF41651016000218180C180018198
:1022D0000C21418100218181704710B50246002008
:1022E000108A20F470600B884C8823438C88234329
:1022F000CC8823431843108210BD00210180418007
:102300008180C180704721B1828942F4005282816C
:1023100004E082894DF6FF731A4082817047028B78
:1023200002F47F420283028B0A430283704721B189
:10233000828942F40042828103E08289C2F30E0264
:102340008281704721B1828A42F40062828204E075
:10235000828A4FF2FF731A4082827047C1F30802EB
:102360008280704701468888C0F308007047028A5F
:102370004FF6F0731A400282028A0A4302827047C3
:1023800021B1828942F00202828104E082894FF603
:10239000FD731A408281704782894FF2FF731A40A1
:1023A000828182890A4382817047028A4FF6DF73F5
:1023B0001A400282028A0A430282704721B1028ACD
:1023C00042F48042028204E0028A4BF6FF731A4014
:1023D00002827047818941F001018181704721B1FA
:1023E000828A42F00802828204E0828A4FF6F77302
:1023F0001A4082827047028BD2B20283028B42EA79
:1024000001220283704721B1828A42F02002828237
:1024100004E0828A4FF6DF731A408282704721B14E
:10242000828A42F01002828204E0828A4FF6EF73C1
:102430001A4082827047828A4FF6FB731A4082826A
:10244000828A0A438282704721B1828A42F0020264
:10245000828204E0828A4FF6FD731A4082827047BE
:102460001AB1838A0B43838202E0838A8B4383827F
:102470007047F0B50346002400260025002040F6F2
:102480006A17B94200D100BF1846C1F3421401F0E7
:102490001F06012707FA06F5012C01D10C3004E0D4
:1024A000022C01D1103000E014301AB107682F431C
:1024B000076002E00768AF430760F0BD02460020F6
:1024C000B1F5007F00D100BF13880B400BB1012094
:1024D00000E00020704701F40072B2F5007F00D1E7
:1024E00000BFCA430280704770B502460024002333
:1024F0000025002040F66A16B14200D100BFC1F3AA
:10250000421501F01F03012606FA03F3012D13D132
:102510009689334017E0000000100140004400405D
:1025200000480040004C00400050004000140140B2
:1025300000780040007C0040022D02D1168A334012
:1025400001E0968A33400C12012606FA04F416883C
:10255000344013B10CB1012000E0002070BD10B573
:102560000022002340F66A14A14200D100BF0A12E3
:1025700001249440A3B2DC43048010BD10B504468E
:10258000FE48844208D101210846FFF728FD0021BA
:102590000120FFF724FD9DE0B4F1804F08D1012117
:1025A0000846FFF70BFD00210120FFF707FD91E032
:1025B000F348844208D101210220FFF7FFFC0021EB
:1025C0000220FFF7FBFC85E0EE48844208D10121A0
:1025D0000420FFF7F3FC00210420FFF7EFFC79E073
:1025E000E948844208D101210820FFF7E7FC0021D7
:1025F0000820FFF7E3FC6DE0E448844208D10121A4
:102600001020FFF7DBFC00211020FFF7D7FC61E072
:10261000DF48844208D101212020FFF7CFFC0021B0
:102620002020FFF7CBFC55E0DA48844208D1012195
:102630000220FFF7D4FC00210220FFF7D0FC49E084
:10264000D548844209D101210804FFF7C8FC0021C4
:102650004FF48030FFF7C3FC3CE0D048844209D1FE
:1026600001214804FFF7BBFC00214FF40030FFF7C5
:10267000B6FC2FE0CA48844209D101218804FFF743
:10268000AEFC00214FF48020FFF7A9FC22E0C548F2
:10269000844208D101214020FFF790FC0021402016
:1026A000FFF78CFC16E0C048844208D1012180204D
:1026B000FFF784FC00218020FFF780FC0AE0BB4884
:1026C000844207D101218015FFF778FC0021A01575
:1026D000FFF774FC10BD00220288A84B98420ED070
:1026E000AC4B98420BD0B0F1804F08D0A44B98422D
:1026F00005D0A44B984202D0A34B984204D14FF688
:102700008F731A404B881A43A04B984207D0A04BB6
:10271000984204D04FF6FF431A400B891A430280B7
:102720004B68C3620B880385944B984202D0994B47
:10273000984201D18B7A03860123838270474FF040
:10274000FF31416000210180018141808172704729
:102750000185828270470A46002101884FF68F73F7
:10276000194011430180704741627047C162704750
:102770000146486A70470146088D704721B10288BA
:1027800042F00202028004E002884FF6FD731A4014
:102790000280704721B1028842F00402028004E006
:1027A00002884FF6FB731A400280704721B10288FD
:1027B00042F08002028004E002884FF67F731A40E4
:1027C0000280704702884FF6F7731A400280028831
:1027D0000A430280704702884FF6FF431A40028086
:1027E00002880A430280704721B1028842F0010248
:1027F000028004E002884FF6FE731A4002807047A0
:1028000070B5002400220023058C4FF6FE7635407B
:102810000584028C8388048B4FF68F752C40B51E7F
:102820002C400D882C43751E2A408D892A434D88E3
:102830002A43524DA84202D0564DA84213D14FF61A
:10284000F7752A40CD892A434FF6FB752A408D88BB
:102850002A434FF6FF652B404FF6FF552B400D8A5C
:102860002B434D8A2B43838004838D684563028408
:1028700070BD70B5002400220023058C4FF6EF7662
:1028800035400584028C8388048B48F6FF752C4004
:102890004FF6FF452C400D884FF6FF7606EA0525DA
:1028A0002C434FF6DF752A408D8906EA05152A4329
:1028B0004D8806EA05152A43304DA84202D0354D11
:1028C000A8421DD14FF67F752A40CD894FF6FF767D
:1028D00006EA05152A434FF6BF752A408D8806EA99
:1028E00005152A434FF6FF352B404FF2FF752B405D
:1028F0000D8A06EA85052B434D8A06EA85052B439A
:10290000838004838D688563028470BD70B5002464
:1029100000220023058C4FF6FF6635400584028CAB
:102920008388848B4FF68F752C404FF6FC752C40B6
:102930000D882C434FF6FF552A408D894FF6FF76C0
:1029400006EA05252A434D8806EA05252A430B4D4C
:10295000A84202D00F4DA84238D14FF2FF752A404D
:10296000CD894FF6FF7606EA05252A434FF6FF3557
:102970002A408D8806EA05252A4319E00000014017
:102980000004004000080040000C0040001000401F
:102990000014004000040140004001400044014098
:1029A0000048014000180040001C0040002000408A
:1029B0004EF6FF752B404DF6FF752B400D8A06EA4B
:1029C00005152B434D8A06EA05152B438380848326
:1029D0008D68C563028470BD70B500220023002499
:1029E000058C4EF6FF7635400584038C8488828BF7
:1029F00048F6FF752A404FF6FF452A400D884FF6EE
:102A0000FF7606EA05252A434DF6FF752B408D8992
:102A100006EA05352B434D8806EA05352B43FE4D66
:102A2000A84202D0FD4DA84208D14BF6FF752C40BC
:102A30000D8A4FF6FF7606EA85152C438480828343
:102A40008D680564038470BD002101804180818010
:102A500081608181C18101824182704770B50346E6
:102A6000002000241846183001258D40ACB21D8C82
:102A7000A5431D8409B108290AD100EB610005684E
:102A80004FF68F76354005600568154305600FE009
:102A90000D1FC5F34E052844056848F6FF763540FE
:102AA000056005684FF6FF7606EA022635430560A5
:102AB00070BD4163704781637047C16370470164B3
:102AC00070470A460021018B4FF68F73194011435E
:102AD000018370470A460021018B48F6FF731940B5
:102AE0004FF6FF7303EA02231943018370470A4636
:102AF0000021818B4FF68F731940114381837047FA
:102B00000A460021818B48F6FF7319404FF6FF7388
:102B100003EA02231943818370470A460021018B8F
:102B20004FF6F77319401143018370470A4600219D
:102B3000018B4FF2FF7319404FF6FF7303EA022334
:102B40001943018370470A460021818B4FF6F773C2
:102B500019401143818370470A460021818B4FF24F
:102B6000FF7319404FF6FF7303EA02231943818371
:102B700070470A460021018B4FF6FB731940114341
:102B8000018370470A460021018B4FF6FF3319403D
:102B90004FF6FF7303EA02231943018370470A4685
:102BA0000021818B4FF6FB731940114381837047DD
:102BB0000A460021818B4FF6FF3319404FF6FF7311
:102BC00003EA02231943818370470A460021018BDF
:102BD0004FF67F7319401143018370470A46002165
:102BE000018BC1F30E014FF6FF7303EA0223194371
:102BF000018370470A460021818B4FF67F7319408D
:102C00001143818370470A460021818BC1F30E0175
:102C10004FF6FF7303EA02231943818370470A4684
:102C20000021018C4FF6FD73194011430184704758
:102C30000A460021018C4FF6F773194011430184B5
:102C400070470A460021018C4FF6DF7319404FF69A
:102C5000FF7303EA02131943018470470A460021F7
:102C6000018C4FF67F7319404FF6FF7303EA02138E
:102C70001943018470470A460021018C4FF6FF5327
:102C800019404FF6FF7303EA02231943018470478A
:102C90000A460021018C4FF2FF7319404FF6FF7373
:102CA00003EA02231943018470470A460021018C7C
:102CB0004DF6FF7319404FF6FF7303EA02331943D1
:102CC0000184704730B5002301248C40A3B2048CEA
:102CD0009C430484048C02FA01F5ADB22C430484B5
:102CE00030BD30B5002304248C40A3B2048C9C4337
:102CF0000484048C02FA01F5ADB22C43048430BD87
:102D0000828B4FF2FF331A408283828B4FF6FF7320
:102D100003EA01231A4382837047F0B50C46154637
:102D2000002100220026078C4EF6FF7C07EA0C07E4
:102D30000784818B028C4FF6FF7707EA043640F652
:102D4000FF4739404FF6FF7707EA052739434FF62B
:102D5000FF7707EA0337394345F6FF773A4046F4F1
:102D600080573A4381830284F0BD828B4FF6F37320
:102D70001A408283828B0A4382837047F0B50C46E7
:102D80001546002100220026078C4FF6FF6C07EA4B
:102D90000C070784818B028C4FF6FF7707EA042625
:102DA0004FF60C7739404FF6FF7707EA03172F43AA
:102DB00039434FF2FF573A4046F480773A438183D4
:102DC0000284F0BD028B4FF2FF331A400283028B64
:102DD0004FF6FF7303EA01231A4302837047F0B5ED
:102DE0000C461546002100220026078C4FF6EF7C8A
:102DF00007EA0C070784018B028C4FF6FF7707EA7E
:102E0000041640F6FF4739404FF6FF7707EA0337CD
:102E100039434FF6FF7703E0000001400004014012
:102E200007EA052739434FF65F773A4046F0100727
:102E30003A4301830284F0BD028B4FF6F3731A40CC
:102E40000283028B0A4302837047F0B50C46154695
:102E500000210022068C4FF6FE773E400684018B4F
:102E6000028C4FF60C7631407E1C06EA03162E4388
:102E700031434FF6F576324044F001063243018388
:102E80000284F0BD70B505460C46208850B92389F0
:102E9000A28861882846FFF7D8FFE1882846FFF717
:102EA000CBFF25E0208804280AD12389A2886188E5
:102EB0002846FFF794FFE1882846FFF783FF17E0D5
:102EC000208808280AD12389A28861882846FFF72C
:102ED00055FFE1882846FFF748FF09E02389A288CB
:102EE00061882846FFF719FFE1882846FFF708FFA9
:102EF00070BD002101804180012181800021C180BD
:102F0000018170472DE9F04105460C460026012756
:102F1000608808B9022600E00026A088012801D1B7
:102F2000022700E001272088A0B92389A2886188B0
:102F30002846FFF78AFFE1882846FFF77DFF2389AF
:102F40003A4631462846FFF74AFFE1882846FFF710
:102F500039FF13E02389A28861882846FFF73FFFE5
:102F6000E1882846FFF72EFF23893A463146284656
:102F7000FFF76BFFE1882846FFF75EFFBDE8F081B1
:102F80000146486B70470146886B70470146C86B25
:102F900070470146086C70470A884B881A438B8833
:102FA0001A43CB881A430B891A434B891A438B89DE
:102FB0001A43A0F84420704700210180418081809D
:102FC000C180018141818181704731B1B0F84420D5
:102FD00042F40042A0F8442005E0B0F84420C2F3D7
:102FE0000E02A0F84420704721B1828842F004020A
:102FF000828004E082884FF6FB731A40828070471B
:1030000021B1828842F00102828004E082884FF67A
:10301000FE731A40828070471AB183890B43838103
:1030200002E083898B438381704781827047024627
:103030000020138A0B400BB1012000E000207047F4
:10304000CA430282704730B50246002000230024A4
:10305000158A05EA0103958905EA010413B10CB14B
:10306000012000E0002030BDCA430282704741EADF
:103070000203A0F8483070471AB183890B4383815B
:1030800002E083898B438381704721B1828842F0BB
:103090000802828004E082884FF6F7731A4082802B
:1030A000704701894FF6F8721140018170470A4656
:1030B000002101894FF68F73194011430181704738
:1030C00030B504460D4629462046FFF7F0FF20891B
:1030D00040F00700208130BD2DE9F04104460D4647
:1030E00016461F46602D06D13B460122314620463A
:1030F000FFF775FE05E03B46012231462046FFF70B
:10310000A4FE29462046FFF7D2FF208940F00700A1
:103110002081BDE8F08130B50C4600210189C9B29B
:103120004FF6FF7505EA0325154325432943018121
:1031300030BD2DE9F04105460E461746984600245D
:1031400043463A4631462846FFF7E5FF2C894FF6BD
:10315000F870044044F007044FF68F70044044F0C8
:1031600070042C81BDE8F081F0B504460D4616468A
:103170001F463B46324629462046FFF7CCFF2089B2
:1031800040F480402081F0BD82884FF68F731A4052
:10319000828082880A438280704702894FF6F873E2
:1031A0001A40028102890A430281704702894FF660
:1031B0007F731A40028102890A4302817047F0B589
:1031C0000C4615461E460021002200230189028B71
:1031D000038C4FF6F877394021434FF6FC473A40CD
:1031E00040F201173A434FF6DD773B404FF6FF7749
:1031F00007EA06172F433B43018102830384F0BD96
:1032000021B1828842F08002828004E082884FF6F9
:103210007F731A4082807047A0F8501070470000FA
:1032200010B58CB004461E230BAA03A9204600F05B
:10323000A9FE0090009810B101200CB010BD9DF8BF
:103240002C00044400200B900EE040489DF82C20F8
:1032500050F8221003A800F0FDFD00B908E09DF829
:103260002C00401CC0B20B909DF82C000728ECD31A
:1032700000BF9DF82C00072863D2DFE800F00405AA
:103280003C5E6564630000BF31A001F08BF831A0A3
:1032900001F088F83FA001F085F84EA001F082F817
:1032A0005CA001F07FF86BA001F07CF879A001F040
:1032B00079F886A001F076F88BA001F073F890A061
:1032C00001F070F894A001F06DF899A001F06AF88F
:1032D0009EA001F067F8A4A001F064F8B0A001F08E
:1032E00061F8BDA001F05EF8C8A001F05BF8D4A0C1
:1032F00001F058F89AE216A001F054F8E0A001F0AD
:1033000051F800200B900EE0ED4800689DF82C204D
:1033100000EBC2004168EBA001F044F89DF82C00DE
:10332000401CC0B20B90E648007D9DF82C108842EE
:10333000EADC07A001F036F878E205A001F032F8E7
:10334000C4E171E245E219E2ECE1000088140020DA
:103350000D0A00002D2D2D2D2D2D2D2D2D2D2D2D3A
:103360002D2D2D2D2D2D2D2D2D2D2D2D55534D410B
:1033700052542056332E312D2D2D2D2D2D2D2D2D0A
:103380002D2D2D2D2D2D2D2D2D2D2D2D2D2D2D207A
:103390000D0A00002020202055534D415254CAC729
:1033A000D3C9414C49454E54454BBFAAB7A2B5C4F9
:1033B000D2BBB8F6C1E9C7C9B5C4B4AEBFDAB5F778
:1033C000CAD4BBA5BDBBD7E9BCFE2CCDA8B9FD2096
:1033D0000D0A0000CBFC2CC4E3BFC9D2D4CDA8B9E0
:1033E000FDB4AEBFDAD6FACAD6B5F7D3C3B3CCD0E4
:1033F000F2C0EFC3E6B5C4C8CEBACEBAAFCAFD2C90
:10340000B2A2D6B4D0D02ED2F2B4CB2CC4E3BFC972
:103410000D0A0000D2D4CBE6D2E2B8FCB8C4BAAFF1
:10342000CAFDB5C4CAE4C8EBB2CECAFD28D6A7B35C
:10343000D6CAFDD7D62831302F3136BDF8D6C629A9
:10344000A1A2D7D6B7FBB4AEA1A2BAAFCAFDC8EB52
:103450000D0A0000BFDAB5D8D6B7B5C8D7F7CEAADF
:10346000B2CECAFD292CB5A5B8F6BAAFCAFDD7EEC3
:10347000B6E0D6A7B3D63130B8F6CAE4C8EBB2CEC0
:10348000CAFD2CB2A2D6A7B3D6BAAFCAFDB7B52033
:103490000D0A0000BBD8D6B5CFD4CABE2ED0C2D438
:1034A000F6B2CECAFDCFD4CABEBDF8D6C6C9E8D6DC
:1034B000C3B9A6C4DC2CD0C2D4F6BDF8D6C6D7AAF0
:1034C000BBBBB9A6C4DC2E0D0A000000BCBCCAF50B
:1034D000D6A7B3D63A7777772E6F70656E65647628
:1034E0002E636F6D0D0A000055534D415254D3D0D9
:1034F00037B8F6CFB5CDB3C3FCC1EE3A0D0A000024
:103500003F3A202020202020BBF1C8A1B0EFD6FAFE
:10351000D0C5CFA20D0A000068656C703A2020204B
:10352000BBF1C8A1B0EFD6FAD0C5CFA20D0A0000FA
:103530006C6973743A202020BFC9D3C3B5C4BAAF35
:10354000CAFDC1D0B1ED0D0A0A00000069643A203D
:1035500020202020BFC9D3C3BAAFCAFDB5C4494497
:10356000C1D0B1ED0D0A0A006865783A202020200C
:10357000B2CECAFD3136BDF8D6C6CFD4CABE2CBA3B
:10358000F3B8FABFD5B8F12BCAFDD7D6BCB4D6B4C0
:10359000D0D0BDF8D6C6D7AABBBB0D0A0A00000022
:1035A0006465633A20202020B2CECAFD3130BDF8D8
:1035B000D6C6CFD4CABE2CBAF3B8FABFD5B8F12B51
:1035C000CAFDD7D6BCB4D6B4D0D0BDF8D6C6D7AA1B
:1035D000BBBB0D0A0A00000072756E74696D653A16
:1035E000312CBFAAC6F4BAAFCAFDD4CBD0D0BCC66A
:1035F000CAB13B302CB9D8B1D5BAAFCAFDD4CBD003
:10360000D0BCC6CAB13B0D0A0A000000C7EBB0B47B
:10361000D5D5B3CCD0F2B1E0D0B4B8F1CABDCAE4CC
:10362000C8EBBAAFCAFDC3FBBCB0B2CECAFDB2A2F2
:10363000D2D4BBD8B3B5BCFCBDE1CAF82E0D0A008C
:103640002D2D2D2D2D2D2D2D2D2D2D2D2D2D2D2DAA
:103650002D2D2D2D2D2D2D2D2D2D414C49454E54EB
:10366000454B2D2D2D2D2D2D2D2D2D2D2D2D2D2D54
:103670002D2D2D2D2D2D2D2D2D2D2D200D0A000024
:103680002D2D2D2D2D2D2D2D2D2D2D2D2D2D2D2D6A
:103690002D2D2D2D2D2D2D2D2DBAAFCAFDC7E5B504
:1036A000A52D2D2D2D2D2D2D2D2D2D2D2D2D2D2DD2
:1036B0002D2D2D2D2D2D2D2D2D2D2D2D200D0A00B7
:1036C000C414002025730D0A00000000EEA000F0D5
:1036D00069FE00200B901AE0FB4909689DF82C2038
:1036E00001EBC20101AB02AA486803A900F070FC1B
:1036F000F54800689DF82C1050F8312003A9F3A07C
:1037000000F050FE9DF82C00401CC0B20B90EE481B
:10371000007D9DF82C108842DEDCAFF2CC3000F04A
:1037200041FE83E0AFF2D83000F03CFE0BAA03A9C3
:10373000204600F029FD9DF82C00C8B9694603A871
:1037400000F0BBFB0B909DF82C0020B9E4A0009981
:1037500000F028FE0EE09DF82C00042801D0022085
:103760006BE5E2A000F01EFE0120D749C87501E01C
:10377000022062E5DCA000F015FE57E0DAA000F0C0
:1037800011FE0BAA03A9204600F0FEFC9DF82C00B8
:10379000C8B9694603A800F090FB0B909DF82C0077
:1037A00020B9D7A0009900F0FDFD0EE09DF82C0097
:1037B000042801D0022040E5D4A000F0F3FD002051
:1037C000C149C87501E0022037E5C7A000F0EAFD55
:1037D0002CE0C5A000F0E6FD0BAA03A9204600F0EE
:1037E000D3FC9DF82C00C8B9694603A800F065FB1E
:1037F0000B909DF82C0078B9B349009881F8EC0043
:10380000084690F8EC0018B1C5A000F0CBFD07E029
:10381000CAA000F0C7FD03E002200EE502200CE57F
:10382000B1A000F0BFFD01E0012006E500BF0020CF
:1038300003E510B50121C848FFF702FC4FF6FF7100
:10384000C548FEF793FF0021C348FEF78DFF002017
:103850009D49C1F8F00010BD10B50121BE48FFF729
:10386000E6FB012808D19848D0F8F0004FF6FF7128
:1038700008449549C1F8F000B748FEF779FF92492E
:10388000D1F8F01008449049C1F8F0000846D0F88B
:10389000F00010BD10B50121AF48FFF7D4FB01289F
:1038A0000AD18949086980470021AB48FEF75CFFCF
:1038B0006421A948FEF75AFF0121A748FFF7D4FB6E
:1038C00010BD7FB504460D4601210420FEF721FB03
:1038D000ADF800500020ADF802000194ADF80800EA
:1038E00069469D48FEF7F7FE012211469A48FFF708
:1038F00093FB01219848FEF777FF1E208DF80C00FE
:1039000003208DF80D008DF80E0001208DF80F00BA
:1039100003A8FDF726FF7FBD10B5044604EBC400E5
:1039200000EB04100122C2EB800081B24FF47A70E8
:10393000FFF7C7FF01206449C87510BD30B595B0C9
:10394000054613AB12AA09A9284600F041FB04461C
:1039500014B1204615B030BD0020149026E05A491D
:1039600009689DF8502001EBC20113AB11AA486809
:1039700001A900F02DFB04460CB12046EAE709A995
:1039800001A800F067FA60B99DF844009DF848105E
:10399000884201DD0220DDE79DF850004A49887524
:1039A0000AE09DF85000401CC0B214904648007DCB
:1039B0009DF850108842D2DC00BF4348007D9DF83E
:1039C0005010884201D10420C4E714A9284600F011
:1039D0004CFC04460CB12046BCE79DF850003A4927
:1039E00048750020B6E72DE9F0419AB03648847D4D
:1039F000007DA04202DC1AB0BDE8F08132490968BE
:103A000001EBC40106AB07AA486808A900F0E0FA78
:103A100008A952A000F0C6FC0026B9E02A48008B95
:103A20000121B1400840D8B122214EA000F0BAFCDB
:103A3000304600F00DFC24492431471839464AA08D
:103A400000F0B0FC222147A000F0ACFC304600F0B2
:103A5000FFFB1D492431084410A941F826008DE0E0
:103A6000304600F0F5FB18492431085810A941F8F8
:103A700026001548C07D30B910A850F826103BA08C
:103A800000F090FC7AE073E02D2D2D2D2D2D2D2DA5
:103A90002D2D2D2D2D2D2D2D2D2D2D2D2D2D2D2D56
:103AA0002DBAAFCAFD204944202D2D2D2D2D2D2DB1
:103AB0002D2D2D2D2D2D2D2D2D2D2D2D2D2D2D2D36
:103AC0002D2D2D2D200D0A00C414002025732069F2
:103AD000642069733A0D0A3058253038580D0A00B1
:103AE0004845583A305825580D0A00003136BDF87F
:103AF000D6C6B2CECAFDCFD4CABE210D0A00000080
:103B00004445433A256C750D0A0000003130BDF87C
:103B1000D6C6B2CECAFDCFD4CABE210D0A0000005F
:103B200052756E2054696D652043616C63756C61DC
:103B300074696F6E204F4E0D0A00000052756E20A2
:103B400054696D652043616C63756C6174696F6E57
:103B5000204F46460D0A0000000800400D0A25735C
:103B6000280000002563000025730000256C750007
:103B700010A850F8261095A000F014FC9DF81C0029
:103B8000401EB04202D093A000F00CFC701CC6B2E4
:103B90009DF81C008642FFF641AF8FA000F002FCAA
:103BA000FFF747FE8D48407D0B280DD2DFE800F07F
:103BB000060D151E27323F4E5F7287008749096840
:103BC00051F834008047054690E0844A126852F864
:103BD000341010988847054688E0804B1B6853F8DE
:103BE0003420DDE91001904705467FE07B4F3F68B8
:103BF00057F8343010A807C89847054676E0DFF834
:103C0000DCC1DCF800C05CF8347010A80FC8B847FD
:103C100005466BE01498DFF8C4C10090DCF800C0E2
:103C20005CF8347010A80FC8B84705465EE0DDE9BF
:103C30001401DFF8A8C1CDE90001DCF800C05CF890
:103C4000347010A80FC8B84705464FE0DDE91412DC
:103C50001698DFF888C1CDE900120290DCF800C0A8
:103C60005CF8347010A80FC8B84705463EE0DDE99F
:103C70001423DDE91610DFF864C1CDE90023CDE996
:103C80000210DCF800C05CF8347010A80FC8B84708
:103C900005462BE0DDE91523DDE91710CDE9012309
:103CA000CDE903101498DFF834C10090DCF800C0AF
:103CB0005CF8347010A80FC8B847054616E0DDE977
:103CC0001623DDE91810CDE90223CDE90410DDE962
:103CD0001401DFF808C1CDE90001DCF800C05CF890
:103CE000347010A80FC8B847054600BF00BFFFF7E3
:103CF000B3FD9DF8180001280CD13848C07D20B9CB
:103D0000294637A000F04EFB07E0294636A000F018
:103D100049FB02E033A000F045FB304890F8EC008E
:103D200088B12E48D0F8F0000A21B0FBF1F201FB77
:103D300012072A48D0F8F000B0FBF1F83A464146A5
:103D40002CA000F02FFB00BF55E670B5314800886D
:103D500000F40040002833D02E48057800202E497A
:103D600048551E4881682C48884704461CB91B49A1
:103D7000C868804721E02848FFF752FA0546012D20
:103D800000D02C46CCB1012C06D0022C08D0032C3C
:103D90000AD0042C10D10BE020A000F003FB0BE0B4
:103DA00021A000F0FFFA07E022A000F0FBFA03E0F8
:103DB00023A000F0F7FA00BF00BF002015490880DB
:103DC00070BD01460868704701607047305825583B
:103DD000000000002C00000029000000C414002096
:103DE0003D256C753B0D0A003D305825583B0D0AAA
:103DF0000000000046756E6374696F6E2052756E28
:103E00002054696D653A25642E2531646D730D0A61
:103E10000000000074140020581D0020BAAFCAFD35
:103E2000B4EDCEF3210D0A00B2CECAFDB4EDCEF34F
:103E3000210D0A00B2CECAFDCCABB6E0210D0A00BE
:103E4000CEB4D5D2B5BDC6A5C5E4B5C4BAAFCAFD1A
:103E5000210D0A0002460AE010780B78984201D042
:103E600001207047107800B902E0521C491CF3E7AA
:103E700000BF0020F5E706E002780A70027802B978
:103E800002E0401C491CF7E700BF704701460020D4
:103E900005E00A7802B903E0421CD0B2491CF8E7F9
:103EA00000BF704710B50246012000E050430B1ED2
:103EB000A1F10104E1B2F9D110BD2DE9F0430746AB
:103EC0000E4600254FF00A083C46002030601FE0F7
:103ED0002078392802DC207830280ADA2078462831
:103EE00002DC2078412804DA2078582809D1012DF5
:103EF00007D12078412801DB4FF01008681CC5B2BB
:103F000005E0207800B904E00120BDE8F083641CDE
:103F1000DEE700BF3C46B8F1100F0FD1032D01DAE8
:103F20000220F2E72078302806D16078582803D1A3
:103F3000A41CA81EC5B204E00320E6E70DB90420C6
:103F4000E3E71BE00DB1681EC5B22078392806DC16
:103F50002078302803DB2078A0F1300902E02078B7
:103F6000A0F1370929464046FFF79CFF316809FB5D
:103F700000103060641C207800B900E0E2E700BF68
:103F80000020C2E710B50446002010700BE0207836
:103F90000870641C491C1078401C107010789842FE
:103FA00001DB012010BD2078202802D020780028D5
:103FB000EDD10020087000BFF4E70146491C00E085
:103FC000491C0878202801D10029F9D108787047C8
:103FD0002DE9FF4F85B080468946002700200490D8
:103FE0000390012002904FF0000B002544461DE095
:103FF0002078202816D005F07F00052812DA0DB9A8
:1040000045F0800505F07F00042803D120782A2898
:1040100000D00EE0207805F07F010DF80100681C4B
:10402000C5B202E0852D00D103E0641C2078002891
:10403000DED100BF8DB1002005F07F010DF8010039
:10404000CBA16846FFF706FF18B900210898017058
:1040500002E001210898017000254FF0000A444653
:1040600014E0641C0AF1010000F0FF0A2078202807
:1040700002D020782A2809D12046FFF79EFF064665
:10408000282E03D02A2E01D0CDF810A02078282881
:1040900002D020780028E4D14446049810B1049856
:1040A000401C04444FF0000A002654E0207810B968
:1040B0004FF0010A50E02078282803D116B9781C67
:1040C000C7B213E02078292808D13EB917B1781E6D
:1040D000C7B201E04FF0010A47B93DE0207822283D
:1040E00004D10EB9012000E00020064647B920782F
:1040F00020282FD0207889F8000009F1010929E053
:1041000020782C2804D101200290681CC5B214E04C
:104110002078202811D0207828280ED04DB9BBF166
:10412000050F06DA20780DF80B000BF1010000F006
:10413000FF0B0298401CC0B20290012F0AD10298D6
:10414000022807D10298401CC0B202900398401C7C
:10415000C0B20390641CA9E700BF0398012809D1ED
:1041600000200DF80B0082A16846FFF773FE08B926
:1041700000200390079903980870002089F8000038
:10418000504609B0BDE8F08FF0B503461546002053
:1041900000220026002455E01F782C2F01D104B9FD
:1041A00001221F78292F01D01F780FB904B94AE0E6
:1041B000002E34D11F78302F02DB1F78392F11DD0C
:1041C0001F78612F02DB1F78662F0BDD1F78412FD0
:1041D00002DB1F78462F05DD1F78582F02D01F788D
:1041E000782F0CD102B12EE01F78612F03DB1F78EE
:1041F000203F0F7001E01F780F70491C1FE01F78EF
:10420000222F04D102B11EE00126012417E01F78FD
:10421000202F14D01F782C2F11D0FF2613E01F78E9
:10422000222F00D1002402B10DE044B11F785C2F91
:1042300002D15B1C471CF8B21F780F70491C471C49
:10424000F8B25B1CA8E700BF00270F702E70F0BD0E
:1042500002460020002105E0474B5B5C0344D8B2D6
:104260004B1CD9B29142F7DB70472DE9F043B5B052
:1042700005460F460024002604E000213E488155F3
:10428000701CC6B20A2EF8DB06E06D1C287818B93F
:10429000012035B0BDE8F08328782828F5D16D1CC1
:1042A00061E034AA69462846FFF76EFF06463544AA
:1042B0009DF8D00020B1012827D0FF284CD149E03B
:1042C0009DF8000000B333A96846FFF7F6FD0646E7
:1042D0000EB10220DDE72046FFF7BAFF26490A317A
:1042E000339A0A50A1F12400008B0121A140884398
:1042F00021491A39088304211F480155601CC4B2A2
:104300000A2C01DD0320C4E726E06846FFF7BEFD66
:10431000401C00F0FF082046FFF79AFF16490A31BB
:1043200000EB010949466846FFF7A5FD12481A3817
:10433000018B0120A040014388B20F491A3908833C
:104340000D4800F80480601CC4B20A2C01DD032073
:104350009FE701E002209CE700BF2878292801D0D0
:10436000287800B900E09CE700BF3C70002090E78F
:10437000766F696400000000DE14002070470000C2
:104380001CB50C46064B7B4469460090204600F065
:1043900056FA04460020694600F064FA20461CBD27
:1043A000DB0400000FB4044910B503AA029800F022
:1043B00075FA10BC5DF814FB7014002070B504464B
:1043C00085690068C10601D5302600E02026C007B7
:1043D00007D070BDD4E9012130469047206A401CC7
:1043E00020626D1EF6D570BD70B5044685690078F3
:1043F000C00707D170BDD4E9012120209047206A71
:10440000401C20626D1EF6D570BD70B50C46054689
:10441000012A05D02878800600D5EA69002302E049
:10442000012305E05B1C934202D2E05C0028F9D135
:10443000A869E618C01AA861286A184428622846A4
:10444000FFF7BCFF04E0D5E9012114F8010B904708
:10445000B442F8D32846FFF7C7FF70BD2DE9F041FD
:104460000646002410687529314616A510D000F0C4
:1044700062F9002802DA404213A507E031688A0792
:1044800001D512A502E0490704D511A5012401E0D8
:1044900000F05AF900210A2206F1240709E0B0FBD6
:1044A000F2FCB0FBF2F302FB1C00303078541846EB
:1044B000491C0028F3D123462A463046BDE8F04186
:1044C00000F04BB9000000002D0000002B000000A0
:1044D00020000000F0B40D460188090502D5214CEA
:1044E0007C4402E01F4C7C440E34002100F1240681
:1044F00008E002F00F071209E75D42EA03721B09A8
:104500007754491C52EA0307F3D1027800231207BB
:1045100004D5702D06D009B1022311342246F0BC17
:1045200000F01BB901231034F8E770B504460D46BE
:104530002146106800F008F9024629462046BDE8E9
:1045400070400023C6E7D21D22F00703D3E9002301
:10455000C0E70368126843F0200303600823C361C7
:104560000023B7E7FA2C00002DE9F05F89460446E6
:104570004FF0000ADFF874B1FB44C0F820A02046D9
:10458000E1688847002874D0252806D0D4E90121A5
:104590009047206A401C2062F1E700265F462046D3
:1045A000E16888472028054607DB312D05D27819B8
:1045B00010F8200C08B10643F1E7B00701D526F04A
:1045C0000406C4F81CA00027C4F818A02A2D09D09E
:1045D000284601F0E9F938B304EB8708303DC8F804
:1045E000185019E059F8041B204604EB870291612A
:1045F000E1688847012F054618D1E069002820DAD4
:1046000026F020061DE0D8F8180000EB800005EB2E
:1046100040003038C8F818002046E1688847054651
:1046200001F0C2F90028EED1012F0AD02E2D08D1B9
:104630002046E16888477F1C0546022F46F0200689
:10464000C4DBA069002803DA404246F00106A061FD
:10465000F00701D026F010066C2D0BD0682D09D084
:104660004C2D39D06A2D35D0742D35D07A2D33D0DC
:1046700016E038E0E1682F4620468847B8420546F4
:1046800009D16C2F26D04FF48060E16806432046A4
:104690008847054604E06C2F1AD04FF4807006431B
:1046A0000DB3A5F14100192802D8203546F4006663
:1046B0004A462946204626604E46FBF7BFFD80B19C
:1046C00001280BD0F61D26F0070000F1080956E777
:1046D0004020E4E78020D8E70020D6E706F104096F
:1046E0004DE7284652E7206ABDE8F09F8A2C00007B
:1046F00010B5431C02E010F8011B71B18107FAD11B
:104700004FF0013202C88C1A8C4314EAC211F9D05E
:10471000C01A0A0603D0C01E10BDC01A10BD0A047C
:1047200001D0801E10BD0902FCD0401E10BD704794
:1047300070477047704709684A0501D540B2704715
:10474000C905FCD500B2704709684A0501D5C0B259
:104750007047C905FCD580B270472DE9F0470D467A
:1047600099469246044600F124080168880604D55B
:10477000E06921F01001216000E00120A84201DD84
:10478000471B00E00027A1697A1902EB0900081A0B
:10479000A0612078C00602D42046FFF70FFE002655
:1047A00008E0D4E901211AF806009047206A401C6D
:1047B000761C20624E45F4DB2078C0060AD52046E0
:1047C000FFF7FCFD06E0D4E9012130209047206A84
:1047D000401C2062381EA7F10107F4DC07E0D4E991
:1047E000012118F805009047206A401C2062281E0D
:1047F000A5F10105F3DC2046FFF7F6FD2078000661
:1048000002D50220BDE8F0870120FBE711680268AD
:10481000006A530501D508700AE0D30501D5088068
:1048200006E0130603D5C217C1E9000200E00860E4
:104830000120704701694A1C02610878704700B581
:104840008FB0CDE901310021059105497944CDE9C9
:10485000031011466846FFF787FE0FB000BD000049
:10486000E5FFFFFF0A6802F8010B0A60704710B508
:10487000436913B1AFF3008001E0FFF7C6FD0120EB
:1048800010BD127800F124010A7000224A70012242
:10489000EDE711684FF0FF32E9E70000074B70B514
:1048A0000D467B44FFF7CBFF0446284600F046FB4D
:1048B00010B14FF0FF3070BD204670BD25CDFFFF19
:1048C0002DE9FF5F15468A460446DFF8AC80F844C0
:1048D0000027D8E900103E46CDE9001010E03AF874
:1048E00016106A4602A800F02DFB411C07D0217863
:1048F000890603D5E269391891420DD80744761C20
:104900002078800602D5E069B84205DDAE42E6DBDC
:104910003AF816000028E2D1A069C01BA061204629
:10492000FFF74CFDD8E90010CDE90010002017E09A
:104930003AF818106A4602A800F004FBB0F1FF3FF5
:1049400081460BD000250DF1080B05E0D4E90121CB
:104950001BF8050090476D1C4D45F7D308F1010089
:10496000B0428046E4DB206A384420622046FFF7EC
:104970003BFDBDE8FF9F0000462900002DE9F04106
:104980008046D21D22F007020025D2E90002F52957
:1049900015A614D0011E72F1000106DA0023D0EB37
:1049A000030063EB020211A608E0D8F800108B07A1
:1049B00001D50FA602E0490701D50EA60125114633
:1049C000002408F1240704E000F04EF830323A5594
:1049D000641C50EA0102F7D12B463246214640467C
:1049E000BDE8F041FFF7B9BE000000002D00000057
:1049F0002B0000002000000030B4002100F124044E
:104A000008E002F00705D208303542EA4372DB08BD
:104A10006554491C52EA0305F3D10468002310A22F
:104A2000250707D5A40600D421B1C46901230DA22E
:104A3000641EC46130BCFFF790BE10B50446214629
:104A40001068FFF781FE02462046BDE810400023B3
:104A5000D2E7D21D22F00701D1E90023CCE7000004
:104A6000000000003000000030B5B0F10A024FEA4B
:104A7000900E71F100034EEA817EB0EB0E0061EB07
:104A800091014FEA101E4EEA017E10EB0E0041EB41
:104A900011114FEA102E4EEA016E10EB0E0041EBA1
:104AA00011214FEA104E4EEA014E10EB0E0041EB81
:104AB0001141401841F100014FEAD00040EA417035
:104AC0004FEAD10110EB80054FEA810444EA90746B
:104AD00044EB01046D1944EB0404521BA3414FF055
:104AE000000348BF0A3200D530BD401C41F100012F
:104AF00030BD70472DE9FF4F0C461E464FF0FF3783
:104B00008BB0D2E90001DDF860800A908A46C1F3DB
:104B10000A5505B93D46002108464FF00000BAF19C
:104B2000000F00F4400005DA00EB80004FF4400174
:104B300001EA50004FEA9059B9F1010F00DDB94682
:104B40000A9850EA4A000ED044F61050A5F2FF35FC
:104B500045432F14B8F1000F1ED07542291E1EDDEB
:104B6000C9F100021CE0B8F1010F4FF0000001D0C4
:104B7000302103E0F24305E02154401CB042FBDB4E
:104B800030460022002121540B99C1F80880C1E968
:104B900000200FB0BDE8F08FBD1B6D1CDEE74A465C
:104BA00000DA694206A800F05FFA06AB93E8070056
:104BB00003AB83E8070050460A9900F015FB8DE827
:104BC0000700A0F500501F3800900398002D0ADD63
:104BD00042F21F014A460844002303A90390684695
:104BE00000F07EFD09E0A0F500504A461F38002382
:104BF00003A90390684600F088FD8DE807000004D3
:104C0000000C03D04FF0FF30410800E01046B8F12F
:104C1000000F03D00022009215461EE0751E05D439
:104C2000FFF722FF303262556D1EF9D5B3460122DF
:104C3000084302D000227F1C04E02078302801D1F4
:104C400000227F1E002A099784D01DE0112D07DA6B
:104C5000FFF70AFF303262556D1C50EA0102F5D1B0
:104C6000084302D00098C8B10EE00021681E05E09C
:104C7000235C625C63542254401E491C8142F7DB72
:104C8000AB46A81B401E0990002004F80B000B98AF
:104C9000099AC0F80880C0E9002B7AE711264FF086
:104CA000000857E72DE9F04F88460446D21D22F050
:104CB000070191B0D1E90001CDE90A0100F05CFEE5
:104CC00002460B98C00F01D02D2007E02068810715
:104CD00001D52B2002E0202101EAC000032A09901F
:104CE00001D0072A05DB03464146204600F07CF947
:104CF0000BE12078800601D5E06900E00620B8F1DC
:104D0000650F814606D0B8F1660F18D0B8F1670F6D
:104D100070D131E00020B9F1110F009001DB1123B7
:104D200001E009F101030AAA01A90CA8FFF7E2FEBC
:104D3000DDE90C70002609F10105834647E00120FA
:104D40004B4600904FF000470AAA01A90CA8FFF7B4
:104D5000D1FEDDE90DB00C995D46002610B909F1D0
:104D600001000D18B9EB050003D4C0F1FF3609F1BD
:104D70000105A5EB09002BE0B9F1010F01DA4FF0B5
:104D800001090020B9F1110F0090484601DD1123FF
:104D900000E003460AAA01A90CA8FFF7ABFEDDE973
:104DA0000C704D4600268346207800070AD4AB4598
:104DB00000DA5D4601A8012D04DD411911F8011C3E
:104DC000302907D04F4502DA17F1040F04DA012029
:104DD00082460FE06D1EEEE7002F02DCED1B3E4425
:104DE00003E0781CA84200DD7D1CB81B00F1010A1D
:104DF0004FF000472078000703D4AA4501DB4FF0AD
:104E0000FF3A0021B7F1004F0DF143088DF8431030
:104E100024D002202B23002F01DA7F422D230A21E8
:104E2000021EA0F1010000DC5FB197FBF1FC97FBD3
:104E3000F1F201FB1C7C17460CF1300C08F801CD97
:104E4000EEE7A8F1010003702188090501D545218D
:104E500000E06521A0F1010800F8011C09980FA9E4
:104E6000A1EB0807FF1D00B10120411901EBEA7019
:104E7000A1693844081A401EA0612078C00602D4F7
:104E80002046FFF79BFA099828B1D4E90121904701
:104E9000206A401C20622078C00622D52046FFF7F9
:104EA0008DFA1EE0002E04DBB34502DD01A8805D13
:104EB00000E03020D4E901219047206A401C2062A4
:104EC000761CAAF101005FEA000A0AD100F088F816
:104ED000C0680168405CD4E901219047206A401C09
:104EE0002062281EA5F10105DCDC07E0D4E90121E0
:104EF00018F8010B9047206A401C2062381EA7F169
:104F00000107F3DC2046FFF76FFA032011B041E6FA
:104F100010B5436913B1AFF3008001E0FFF7D0FC97
:104F2000012010BD128800F1240182840022C28475
:104F30000122EDE711684FF0FF32E9E7007B00F056
:104F40008000704770B516460C46054600F040F8E4
:104F5000036893F80101012806D0FF2C0FD8185DD3
:104F600068B101202C7070BDD3F80701324621468C
:104F700003F2071303442846BDE8704018474FF07A
:104F8000FF3070BD754600F0EBF8AE46050069468F
:104F9000534620F00700854618B020B5FCF7CAFB41
:104FA000BDE820404FF000064FF000074FF000082A
:104FB0004FF0000B21F00701AC46ACE8C009ACE8AB
:104FC000C009ACE8C009ACE8C0098D4670470000D4
:104FD00010B500F005F8001D10BD00BF090A000063
:104FE00000487047401E00202DE9F0411F4604464E
:104FF00003260168072A01F4006004DB08B116A546
:1050000005E016A503E008B115A500E015A521F0FF
:1050100010002060A069C01EA0610FB1401EA061F9
:105020002046FFF7CBF94FB1D4E90121384690472C
:10503000206A401C2062C01C206206E0206AFAE759
:10504000D4E9012115F8010B9047761EF8D22046CD
:10505000FFF7CAF9BDE8F0814E414E006E616E0067
:10506000494E4600696E66002DE9F04781461646B6
:105070008AB0354878440DC88DE80D003248784430
:10508000801C03AC0DC884E80D0041F69B30084439
:10509000372190FBF1F290FBF1F5A5F1800501FBC2
:1050A00012041B3C02D56442012000E00020DFF81E
:1050B00098A080460027FA44AAF1BE0A0EE0E00755
:1050C0000AD03246684607EB470101230AEB81010B
:1050D00000F01BFB8DE8070064107F1C002CEED154
:1050E000194F7F44AE3F19E0E80715D007EB0410D5
:1050F0000DF1180A90E80E008AE80E00C068F04230
:1051000001D1981908903246012306A903A800F09E
:10511000FCFA03AB83E807006D10641C002DE3D19B
:105120004FF0010332466946B8F1000F03A802D0E0
:1051300000F0D6FA01E000F0E8FAC9E90001C9F888
:1051400008200AB0BDE8F0872422000010B504460C
:10515000AFF300802046BDE81040FBF7D4B8000054
:1051600000487047201E00204FF0013C50F8042BEF
:1051700051F8043B9A4221D1A2EB0C03934313EA6A
:10518000CC1317D150F8042B51F8043B9A4215D197
:10519000A2EB0C03934313EACC130BD150F8042B6E
:1051A00051F8043B9A4209D1A2EB0C03934313EA52
:1051B000CC13DBD04FF00000704700BFD01A01BA0B
:1051C000B1FA81F101F0180122FA01F0CB40C1F1EE
:1051D0002001DBB2C0B2C01A2CFA01F3D11A9143FC
:1051E00011EAC311E6D170475FEA400C08BF91F0A5
:1051F000000F4FEA8C234FEAC12243EA51514FEA94
:105200001C5018BF00F5F0404FEA300018BF41F0C5
:1052100000415FEA6C5C00F02980BCF1FF3F08BFF1
:1052200040F080407047130C06BF12044FF0100C82
:105230004FF0000C130E04BF12020CF1080C130FF8
:1052400004BF12010CF1040C930F04BF92000CF187
:10525000020CD30F04BF52000CF1010C11464FF0A9
:105260000002A0F11F00A0EB0C00704711F0004FEE
:1052700008BF704731F000413FF4D5AF0B0C06BFBB
:1052800009044FF0100C4FF0000C0B0E04BF090284
:105290000CF1080C0B0F04BF09010CF1040C8B0F6F
:1052A00004BF89000CF1020CCB0F04BF49000CF1C4
:1052B000010CCCF12003A0EB0C0022FA03F302FA5C
:1052C0000CF241EA030100F10100704720F07F4C2D
:1052D00080EA030023F07F47ACEB070303F57C5320
:1052E00000F0004003F1FF032DE980494FEA154B20
:1052F00009B44FEA144325EA0B4E24EA03480FF29F
:10530000042606EB132749083E785FEA320203FBC6
:105310000667C7F5000707FB06F64FEA54374FEA62
:10532000D64606F1020607FB066CCCF1005C4FEA9C
:105330001C472CEA074C07FB06F40CFB06F504EBB4
:1053400015464FEA961634BF00204FF000404FEA52
:10535000D13706FB07FC4FEA1C4C0CFB0BF7D21BAA
:1053600003FB0CF761EB07010CFB0EF7B0EB0740FA
:1053700072EB17420CFB08F734BFA2EB0742B2EB0B
:10538000074261EB17414FEA0C444FEA910706FBD5
:1053900007FC4FEA1C4C0CFB0BF7B0EBC74072EB61
:1053A000573203FB0CF734BFA2EBC742B2EBC74244
:1053B00061EB57310CFB0EF7B0EBC70072EB577285
:1053C0000CFB08F734BFA2EBC702B2EBC70261EBDC
:1053D0005771039F4FEA816141EA921104EBCC04BB
:1053E0004FEAD1374FEA826206FB07FC42EA90128D
:1053F0004FEA80604FEA1C4C0CFB0BF7D21B03FBFF
:105400000CF761EB07010CFB0EF7B0EB074072EBFA
:1054100017420CFB08F734BFA2EB0742B2EB07427E
:1054200061EB17414FEA8C554FEA910704EB9C243E
:1054300006FB07FC4FEA1C4C0CFB0BF7B0EBC7401C
:1054400072EB573203FB0CF734BFA2EBC742B2EB4F
:10545000C74261EB57310CFB0EF7B0EBC70072EBA4
:1054600057720CFB08F734BFA2EBC702B2EBC702BE
:1054700061EB577115EB4C254FEA816141EA9211BE
:105480004FEA82624FEAD13742EA901206FB07FCEC
:1054900044F100044FEA80604FEA1C4C0CFB0BF710
:1054A000D21B03FB0CF761EB07010CFB0EF7B0EB13
:1054B000074072EB17420CFB08F734BFA2EB074220
:1054C000B2EB074261EB174115EB1C154FEA813136
:1054D00041EA92414FEA823242EA90424FEA8030FA
:1054E0004FEA0C7644F1000448EA03434EEA0B48C5
:1054F0004FF0000EB2EB080C71EB030724BF6246BD
:1055000039464EEB0E0E4FF0000B00185241494148
:105510004BEB0B0BB2EB080C71EB03077BF1000BB1
:1055200024BF624639464EEB0E0E4FF0000B0018BA
:10553000524149414BEB0B0BB2EB080C71EB0307EB
:105540007BF1000B24BF624639464EEB0E0E51EA4A
:10555000020718BF46F0010616EB0E7655F1000261
:1055600054F1000103D5BDE88901BDE80088BDE81C
:105570008901BDE80048B619524141EB0101A3F190
:105580000103704780807F7E7D7C7B7A7978777697
:1055900076757473727171706F6E6E6D6C6C6B6A10
:1055A0006A696868676666656464636362616160AE
:1055B000605F5F5E5E5D5D5C5C5B5B5A5A5959582B
:1055C0005857575656555555545453535252525195
:1055D000515050504F4F4F4E4E4D4D4D4C4C4C4BEB
:1055E0004B4B4A4A4A494949484848474747474632
:1055F000464645454544444444434343434242426E
:1056000042414141002B9C4630D477002BD01CB541
:105610004FEA370703B44FF010004FF01001BAF112
:10562000000F06D0BCF1000FDCBF40F0080040F0D6
:1056300008014FF000000FBCBDE810400BF1010B5A
:10564000BBF1010F08BF5FEA170722BF12F1010289
:1056500011F101014FF0004143F1000300F000405F
:1056600043EA00007047F9D35708D0E746EA0646F8
:1056700013F1400F4FEA16461FDD13F1200FDFBF75
:1056800016430A46002120335B42BED0C3F12007F7
:1056900046EA064602FA07F74FEA164646EA0706C2
:1056A000C3F1200722FA03F201FA07F721FA03F106
:1056B0004FF0000342EA0702A7E746EA020646EA7D
:1056C00006464FEA164646EA0106BCBF46EA0646CB
:1056D000360C4FF000034FF000024FF0000194E74A
:1056E0002DE9804C9A46934670B491E8380007C87B
:1056F00031EA400C48BF34EA430C03D5FFF7E6FD1E
:10570000FFF780FFF0BCBDE8008C2DE9804C9A4685
:10571000934670B491E8380007C810F0804F08BF76
:1057200013F0804F03D100F005F8FFF76BFFF0BCDA
:10573000BDE8008C20F07F4780EA030023F07F4C17
:1057400007EB0C03A3F57C5300F00040A3F1FE032C
:1057500092F0000F00F0B38095F0000F00F077801A
:105760002DE901494FEA11404FEA144621EA004869
:1057700000FB06FC24EA064708FB06F607FB08F8D0
:1057800000FB07F718EB06484CEB164C4FEA124BA0
:1057900018EB07484FEA15464CEB174022EA0B4E30
:1057A0000BFB06FC25EA06470EFB06F607FB0EFE82
:1057B0000BFB07F71EEB064E4CEB164C4FF00006AA
:1057C0001EEB074E4CEB174B18EB0B0840F100009B
:1057D00018EB0E0B58EB000840F100008F1A4FF049
:1057E00000013CBFC943661B14BFB5EB040C00218C
:1057F0003CBFC943F61B4FEA17444EEA8E0E27EA18
:1058000004454FEA1C4704FB07622CEA074C05FBE2
:1058100007F70CFB05F604FB0CFC16EB074642EB06
:10582000174216EB0C4642EB1C421BEB060658EBEC
:105830000202414146EA9E0601D5BDE80189B6193A
:10584000524141EB0101A3F10103BDE801894FEA97
:1058500014454FEA114724EA054621EA074C05FBA7
:1058600007F406FB07F70CFB06F105FB0CFC11EB3C
:10587000074144EB17444FEA124711EB0C4144EB4C
:105880001C4422EA074C05FB07F206FB07F70CFB5A
:1058900006F605FB0CFC16EB074642EB174216EB2F
:1058A0000C4642EB1C456A1854F1000148BF704792
:1058B000B619524141EB0101A3F10103704795F084
:1058C000000F37D04FEA11424FEA144721EA02464F
:1058D00024EA074C02FB07F106FB07F70CFB06F472
:1058E00002FB0CFC14EB074441EB17414FEA154750
:1058F00014EB0C4441EB1C4125EA074C02FB07F575
:1059000006FB07F70CFB06F602FB0CFC16EB074642
:1059100045EB174516EB0C4645EB1C42121951F1AD
:10592000000148BF7047B619524141EB0101A3F194
:10593000010370474FEA14454FEA114724EA054630
:1059400021EA074C05FB07F106FB07F70CFB06F203
:105950004FF0000605FB0CFC12EB074241EB174130
:1059600012EB0C4251EB1C4148BF7047921841EBBF
:105970000101A3F10103704703B4019841000098AD
:1059800050EAC12018BF04204A0D18BF40F00100A2
:1059900040F2FF72B2EB515F08BF40F002000128F5
:1059A00008BF052002B0704730380A2801D2012014
:1059B000704700207047000010B500290AD0087811
:1059C000002807D005487844FFF7CEFB002801D017
:1059D000002010BD0248784410BD0000A619000048
:1059E0009E19000010B500290AD00878002807D0B9
:1059F00005487844FFF7B8FB002801D0002010BD0F
:105A00000248784410BD0000961900008E1900006D
:105A10004FF04070E1EE100A7047FFF743B9000005
:105A200000000000000000000000000000003F40F7
:105A30000000000000000000300040003000400086
:105A4000000009000BC03D000BC03D00090018C05C
:105A500024407FE0224031800000180024C01B0059
:105A60000D803240018003801C4027401C8007408D
:105A70000040100060000000000000000000000076
:105A8000000000001F8020404020000040202040F7
:105A90001F8000000000090006001F8006000900AA
:105AA0000000040004003F80040004000000001017
:105AB000006000000000000000000400040004007A
:105AC000040004000000000000400000000000008E
:105AD0000000002001C006003800400000001F80C8
